{
	"data": {
		"bytecode": {
			"linkReferences": {},
			"object": "608060405234801561001057600080fd5b506101ed806100206000396000f3fe608060405234801561001057600080fd5b506004361061002b5760003560e01c80632d4bd1e514610030575b600080fd5b61003861003a565b005b60005b60058110156100635761004f81610066565b60018161005c9190610159565b905061003d565b50565b6100fc8160405160240161007a919061019c565b6040516020818303038152906040527ff82c50f1000000000000000000000000000000000000000000000000000000007bffffffffffffffffffffffffffffffffffffffffffffffffffffffff19166020820180517bffffffffffffffffffffffffffffffffffffffffffffffffffffffff83818316178352505050506100ff565b50565b60006a636f6e736f6c652e6c6f679050600080835160208501845afa505050565b6000819050919050565b7f4e487b7100000000000000000000000000000000000000000000000000000000600052601160045260246000fd5b600061016482610120565b915061016f83610120565b92508282019050808211156101875761018661012a565b5b92915050565b61019681610120565b82525050565b60006020820190506101b1600083018461018d565b9291505056fea2646970667358221220c8ad64082318a7845226e7cd6d3171907d2c757acb5bb2a4f97b51ee9d4f2e9c64736f6c63430008120033",
			"opcodes": "PUSH1 0x80 PUSH1 0x40 MSTORE CALLVALUE DUP1 ISZERO PUSH2 0x10 JUMPI PUSH1 0x0 DUP1 REVERT JUMPDEST POP PUSH2 0x1ED DUP1 PUSH2 0x20 PUSH1 0x0 CODECOPY PUSH1 0x0 RETURN INVALID PUSH1 0x80 PUSH1 0x40 MSTORE CALLVALUE DUP1 ISZERO PUSH2 0x10 JUMPI PUSH1 0x0 DUP1 REVERT JUMPDEST POP PUSH1 0x4 CALLDATASIZE LT PUSH2 0x2B JUMPI PUSH1 0x0 CALLDATALOAD PUSH1 0xE0 SHR DUP1 PUSH4 0x2D4BD1E5 EQ PUSH2 0x30 JUMPI JUMPDEST PUSH1 0x0 DUP1 REVERT JUMPDEST PUSH2 0x38 PUSH2 0x3A JUMP JUMPDEST STOP JUMPDEST PUSH1 0x0 JUMPDEST PUSH1 0x5 DUP2 LT ISZERO PUSH2 0x63 JUMPI PUSH2 0x4F DUP2 PUSH2 0x66 JUMP JUMPDEST PUSH1 0x1 DUP2 PUSH2 0x5C SWAP2 SWAP1 PUSH2 0x159 JUMP JUMPDEST SWAP1 POP PUSH2 0x3D JUMP JUMPDEST POP JUMP JUMPDEST PUSH2 0xFC DUP2 PUSH1 0x40 MLOAD PUSH1 0x24 ADD PUSH2 0x7A SWAP2 SWAP1 PUSH2 0x19C JUMP JUMPDEST PUSH1 0x40 MLOAD PUSH1 0x20 DUP2 DUP4 SUB SUB DUP2 MSTORE SWAP1 PUSH1 0x40 MSTORE PUSH32 0xF82C50F100000000000000000000000000000000000000000000000000000000 PUSH28 0xFFFFFFFFFFFFFFFFFFFFFFFFFFFFFFFFFFFFFFFFFFFFFFFFFFFFFFFF NOT AND PUSH1 0x20 DUP3 ADD DUP1 MLOAD PUSH28 0xFFFFFFFFFFFFFFFFFFFFFFFFFFFFFFFFFFFFFFFFFFFFFFFFFFFFFFFF DUP4 DUP2 DUP4 AND OR DUP4 MSTORE POP POP POP POP PUSH2 0xFF JUMP JUMPDEST POP JUMP JUMPDEST PUSH1 0x0 PUSH11 0x636F6E736F6C652E6C6F67 SWAP1 POP PUSH1 0x0 DUP1 DUP4 MLOAD PUSH1 0x20 DUP6 ADD DUP5 GAS STATICCALL POP POP POP JUMP JUMPDEST PUSH1 0x0 DUP2 SWAP1 POP SWAP2 SWAP1 POP JUMP JUMPDEST PUSH32 0x4E487B7100000000000000000000000000000000000000000000000000000000 PUSH1 0x0 MSTORE PUSH1 0x11 PUSH1 0x4 MSTORE PUSH1 0x24 PUSH1 0x0 REVERT JUMPDEST PUSH1 0x0 PUSH2 0x164 DUP3 PUSH2 0x120 JUMP JUMPDEST SWAP2 POP PUSH2 0x16F DUP4 PUSH2 0x120 JUMP JUMPDEST SWAP3 POP DUP3 DUP3 ADD SWAP1 POP DUP1 DUP3 GT ISZERO PUSH2 0x187 JUMPI PUSH2 0x186 PUSH2 0x12A JUMP JUMPDEST JUMPDEST SWAP3 SWAP2 POP POP JUMP JUMPDEST PUSH2 0x196 DUP2 PUSH2 0x120 JUMP JUMPDEST DUP3 MSTORE POP POP JUMP JUMPDEST PUSH1 0x0 PUSH1 0x20 DUP3 ADD SWAP1 POP PUSH2 0x1B1 PUSH1 0x0 DUP4 ADD DUP5 PUSH2 0x18D JUMP JUMPDEST SWAP3 SWAP2 POP POP JUMP INVALID LOG2 PUSH5 0x6970667358 0x22 SLT KECCAK256 0xC8 0xAD PUSH5 0x82318A784 MSTORE 0x26 0xE7 0xCD PUSH14 0x3171907D2C757ACB5BB2A4F97B51 0xEE SWAP14 0x4F 0x2E SWAP13 PUSH5 0x736F6C6343 STOP ADDMOD SLT STOP CALLER "
		},
		"gasEstimates": {
			"creation": {
				"codeDepositCost": "98600",
				"executionCost": "147",
				"totalCost": "98747"
			},
			"external": {
				"printInConsoleWithWhileLoop()": "infinite"
			}
		},
		"methodIdentifiers": {
			"printInConsoleWithWhileLoop()": "2d4bd1e5"
		}
	},
	"abi": [
		{
			"inputs": [],
			"name": "printInConsoleWithWhileLoop",
			"outputs": [],
			"stateMutability": "view",
			"type": "function"
		}
	]
}