{
	"data": {
		"bytecode": {
			"linkReferences": {},
			"object": "608060405234801561001057600080fd5b50610200806100206000396000f3fe608060405234801561001057600080fd5b506004361061002b5760003560e01c806371cbecd814610030575b600080fd5b61003861003a565b005b60005b60058110156100625761004f81610065565b808061005a90610158565b91505061003d565b50565b6100fb8160405160240161007991906101af565b6040516020818303038152906040527ff82c50f1000000000000000000000000000000000000000000000000000000007bffffffffffffffffffffffffffffffffffffffffffffffffffffffff19166020820180517bffffffffffffffffffffffffffffffffffffffffffffffffffffffff83818316178352505050506100fe565b50565b60006a636f6e736f6c652e6c6f679050600080835160208501845afa505050565b7f4e487b7100000000000000000000000000000000000000000000000000000000600052601160045260246000fd5b6000819050919050565b60006101638261014e565b91507fffffffffffffffffffffffffffffffffffffffffffffffffffffffffffffffff82036101955761019461011f565b5b600182019050919050565b6101a98161014e565b82525050565b60006020820190506101c460008301846101a0565b9291505056fea26469706673582212202ff998649cce702f7c5c263aefa0c00174d15784da9e1b6c60ff8f153d3cf16264736f6c63430008120033",
			"opcodes": "PUSH1 0x80 PUSH1 0x40 MSTORE CALLVALUE DUP1 ISZERO PUSH2 0x10 JUMPI PUSH1 0x0 DUP1 REVERT JUMPDEST POP PUSH2 0x200 DUP1 PUSH2 0x20 PUSH1 0x0 CODECOPY PUSH1 0x0 RETURN INVALID PUSH1 0x80 PUSH1 0x40 MSTORE CALLVALUE DUP1 ISZERO PUSH2 0x10 JUMPI PUSH1 0x0 DUP1 REVERT JUMPDEST POP PUSH1 0x4 CALLDATASIZE LT PUSH2 0x2B JUMPI PUSH1 0x0 CALLDATALOAD PUSH1 0xE0 SHR DUP1 PUSH4 0x71CBECD8 EQ PUSH2 0x30 JUMPI JUMPDEST PUSH1 0x0 DUP1 REVERT JUMPDEST PUSH2 0x38 PUSH2 0x3A JUMP JUMPDEST STOP JUMPDEST PUSH1 0x0 JUMPDEST PUSH1 0x5 DUP2 LT ISZERO PUSH2 0x62 JUMPI PUSH2 0x4F DUP2 PUSH2 0x65 JUMP JUMPDEST DUP1 DUP1 PUSH2 0x5A SWAP1 PUSH2 0x158 JUMP JUMPDEST SWAP2 POP POP PUSH2 0x3D JUMP JUMPDEST POP JUMP JUMPDEST PUSH2 0xFB DUP2 PUSH1 0x40 MLOAD PUSH1 0x24 ADD PUSH2 0x79 SWAP2 SWAP1 PUSH2 0x1AF JUMP JUMPDEST PUSH1 0x40 MLOAD PUSH1 0x20 DUP2 DUP4 SUB SUB DUP2 MSTORE SWAP1 PUSH1 0x40 MSTORE PUSH32 0xF82C50F100000000000000000000000000000000000000000000000000000000 PUSH28 0xFFFFFFFFFFFFFFFFFFFFFFFFFFFFFFFFFFFFFFFFFFFFFFFFFFFFFFFF NOT AND PUSH1 0x20 DUP3 ADD DUP1 MLOAD PUSH28 0xFFFFFFFFFFFFFFFFFFFFFFFFFFFFFFFFFFFFFFFFFFFFFFFFFFFFFFFF DUP4 DUP2 DUP4 AND OR DUP4 MSTORE POP POP POP POP PUSH2 0xFE JUMP JUMPDEST POP JUMP JUMPDEST PUSH1 0x0 PUSH11 0x636F6E736F6C652E6C6F67 SWAP1 POP PUSH1 0x0 DUP1 DUP4 MLOAD PUSH1 0x20 DUP6 ADD DUP5 GAS STATICCALL POP POP POP JUMP JUMPDEST PUSH32 0x4E487B7100000000000000000000000000000000000000000000000000000000 PUSH1 0x0 MSTORE PUSH1 0x11 PUSH1 0x4 MSTORE PUSH1 0x24 PUSH1 0x0 REVERT JUMPDEST PUSH1 0x0 DUP2 SWAP1 POP SWAP2 SWAP1 POP JUMP JUMPDEST PUSH1 0x0 PUSH2 0x163 DUP3 PUSH2 0x14E JUMP JUMPDEST SWAP2 POP PUSH32 0xFFFFFFFFFFFFFFFFFFFFFFFFFFFFFFFFFFFFFFFFFFFFFFFFFFFFFFFFFFFFFFFF DUP3 SUB PUSH2 0x195 JUMPI PUSH2 0x194 PUSH2 0x11F JUMP JUMPDEST JUMPDEST PUSH1 0x1 DUP3 ADD SWAP1 POP SWAP2 SWAP1 POP JUMP JUMPDEST PUSH2 0x1A9 DUP2 PUSH2 0x14E JUMP JUMPDEST DUP3 MSTORE POP POP JUMP JUMPDEST PUSH1 0x0 PUSH1 0x20 DUP3 ADD SWAP1 POP PUSH2 0x1C4 PUSH1 0x0 DUP4 ADD DUP5 PUSH2 0x1A0 JUMP JUMPDEST SWAP3 SWAP2 POP POP JUMP INVALID LOG2 PUSH5 0x6970667358 0x22 SLT KECCAK256 0x2F 0xF9 SWAP9 PUSH5 0x9CCE702F7C 0x5C 0x26 GASPRICE 0xEF LOG0 0xC0 ADD PUSH21 0xD15784DA9E1B6C60FF8F153D3CF16264736F6C6343 STOP ADDMOD SLT STOP CALLER "
		},
		"gasEstimates": {
			"creation": {
				"codeDepositCost": "102400",
				"executionCost": "147",
				"totalCost": "102547"
			},
			"external": {
				"printInConsoleWithForLoop()": "infinite"
			}
		},
		"methodIdentifiers": {
			"printInConsoleWithForLoop()": "71cbecd8"
		}
	},
	"abi": [
		{
			"inputs": [],
			"name": "printInConsoleWithForLoop",
			"outputs": [],
			"stateMutability": "view",
			"type": "function"
		}
	]
}