{
	"data": {
		"bytecode": {
			"linkReferences": {},
			"object": "608060405234801561001057600080fd5b5061034f806100206000396000f3fe608060405234801561001057600080fd5b506004361061002b5760003560e01c80638b6c263e14610030575b600080fd5b61004a600480360381019061004591906101da565b61004c565b005b600060028261005b9190610236565b036100a35761009e6040518060400160405280600681526020017f45732070617200000000000000000000000000000000000000000000000000008152506100e5565b6100e2565b6100e16040518060400160405280600881526020017f457320696d7061720000000000000000000000000000000000000000000000008152506100e5565b5b50565b61017b816040516024016100f991906102f7565b6040516020818303038152906040527f41304fac000000000000000000000000000000000000000000000000000000007bffffffffffffffffffffffffffffffffffffffffffffffffffffffff19166020820180517bffffffffffffffffffffffffffffffffffffffffffffffffffffffff838183161783525050505061017e565b50565b60006a636f6e736f6c652e6c6f679050600080835160208501845afa505050565b600080fd5b6000819050919050565b6101b7816101a4565b81146101c257600080fd5b50565b6000813590506101d4816101ae565b92915050565b6000602082840312156101f0576101ef61019f565b5b60006101fe848285016101c5565b91505092915050565b7f4e487b7100000000000000000000000000000000000000000000000000000000600052601260045260246000fd5b6000610241826101a4565b915061024c836101a4565b92508261025c5761025b610207565b5b828206905092915050565b600081519050919050565b600082825260208201905092915050565b60005b838110156102a1578082015181840152602081019050610286565b60008484015250505050565b6000601f19601f8301169050919050565b60006102c982610267565b6102d38185610272565b93506102e3818560208601610283565b6102ec816102ad565b840191505092915050565b6000602082019050818103600083015261031181846102be565b90509291505056fea26469706673582212205afb4686a8195740c6cad7097461e9a093e34bd0f2bb10ada689eaaf744ec91264736f6c63430008120033",
			"opcodes": "PUSH1 0x80 PUSH1 0x40 MSTORE CALLVALUE DUP1 ISZERO PUSH2 0x10 JUMPI PUSH1 0x0 DUP1 REVERT JUMPDEST POP PUSH2 0x34F DUP1 PUSH2 0x20 PUSH1 0x0 CODECOPY PUSH1 0x0 RETURN INVALID PUSH1 0x80 PUSH1 0x40 MSTORE CALLVALUE DUP1 ISZERO PUSH2 0x10 JUMPI PUSH1 0x0 DUP1 REVERT JUMPDEST POP PUSH1 0x4 CALLDATASIZE LT PUSH2 0x2B JUMPI PUSH1 0x0 CALLDATALOAD PUSH1 0xE0 SHR DUP1 PUSH4 0x8B6C263E EQ PUSH2 0x30 JUMPI JUMPDEST PUSH1 0x0 DUP1 REVERT JUMPDEST PUSH2 0x4A PUSH1 0x4 DUP1 CALLDATASIZE SUB DUP2 ADD SWAP1 PUSH2 0x45 SWAP2 SWAP1 PUSH2 0x1DA JUMP JUMPDEST PUSH2 0x4C JUMP JUMPDEST STOP JUMPDEST PUSH1 0x0 PUSH1 0x2 DUP3 PUSH2 0x5B SWAP2 SWAP1 PUSH2 0x236 JUMP JUMPDEST SUB PUSH2 0xA3 JUMPI PUSH2 0x9E PUSH1 0x40 MLOAD DUP1 PUSH1 0x40 ADD PUSH1 0x40 MSTORE DUP1 PUSH1 0x6 DUP2 MSTORE PUSH1 0x20 ADD PUSH32 0x4573207061720000000000000000000000000000000000000000000000000000 DUP2 MSTORE POP PUSH2 0xE5 JUMP JUMPDEST PUSH2 0xE2 JUMP JUMPDEST PUSH2 0xE1 PUSH1 0x40 MLOAD DUP1 PUSH1 0x40 ADD PUSH1 0x40 MSTORE DUP1 PUSH1 0x8 DUP2 MSTORE PUSH1 0x20 ADD PUSH32 0x457320696D706172000000000000000000000000000000000000000000000000 DUP2 MSTORE POP PUSH2 0xE5 JUMP JUMPDEST JUMPDEST POP JUMP JUMPDEST PUSH2 0x17B DUP2 PUSH1 0x40 MLOAD PUSH1 0x24 ADD PUSH2 0xF9 SWAP2 SWAP1 PUSH2 0x2F7 JUMP JUMPDEST PUSH1 0x40 MLOAD PUSH1 0x20 DUP2 DUP4 SUB SUB DUP2 MSTORE SWAP1 PUSH1 0x40 MSTORE PUSH32 0x41304FAC00000000000000000000000000000000000000000000000000000000 PUSH28 0xFFFFFFFFFFFFFFFFFFFFFFFFFFFFFFFFFFFFFFFFFFFFFFFFFFFFFFFF NOT AND PUSH1 0x20 DUP3 ADD DUP1 MLOAD PUSH28 0xFFFFFFFFFFFFFFFFFFFFFFFFFFFFFFFFFFFFFFFFFFFFFFFFFFFFFFFF DUP4 DUP2 DUP4 AND OR DUP4 MSTORE POP POP POP POP PUSH2 0x17E JUMP JUMPDEST POP JUMP JUMPDEST PUSH1 0x0 PUSH11 0x636F6E736F6C652E6C6F67 SWAP1 POP PUSH1 0x0 DUP1 DUP4 MLOAD PUSH1 0x20 DUP6 ADD DUP5 GAS STATICCALL POP POP POP JUMP JUMPDEST PUSH1 0x0 DUP1 REVERT JUMPDEST PUSH1 0x0 DUP2 SWAP1 POP SWAP2 SWAP1 POP JUMP JUMPDEST PUSH2 0x1B7 DUP2 PUSH2 0x1A4 JUMP JUMPDEST DUP2 EQ PUSH2 0x1C2 JUMPI PUSH1 0x0 DUP1 REVERT JUMPDEST POP JUMP JUMPDEST PUSH1 0x0 DUP2 CALLDATALOAD SWAP1 POP PUSH2 0x1D4 DUP2 PUSH2 0x1AE JUMP JUMPDEST SWAP3 SWAP2 POP POP JUMP JUMPDEST PUSH1 0x0 PUSH1 0x20 DUP3 DUP5 SUB SLT ISZERO PUSH2 0x1F0 JUMPI PUSH2 0x1EF PUSH2 0x19F JUMP JUMPDEST JUMPDEST PUSH1 0x0 PUSH2 0x1FE DUP5 DUP3 DUP6 ADD PUSH2 0x1C5 JUMP JUMPDEST SWAP2 POP POP SWAP3 SWAP2 POP POP JUMP JUMPDEST PUSH32 0x4E487B7100000000000000000000000000000000000000000000000000000000 PUSH1 0x0 MSTORE PUSH1 0x12 PUSH1 0x4 MSTORE PUSH1 0x24 PUSH1 0x0 REVERT JUMPDEST PUSH1 0x0 PUSH2 0x241 DUP3 PUSH2 0x1A4 JUMP JUMPDEST SWAP2 POP PUSH2 0x24C DUP4 PUSH2 0x1A4 JUMP JUMPDEST SWAP3 POP DUP3 PUSH2 0x25C JUMPI PUSH2 0x25B PUSH2 0x207 JUMP JUMPDEST JUMPDEST DUP3 DUP3 MOD SWAP1 POP SWAP3 SWAP2 POP POP JUMP JUMPDEST PUSH1 0x0 DUP2 MLOAD SWAP1 POP SWAP2 SWAP1 POP JUMP JUMPDEST PUSH1 0x0 DUP3 DUP3 MSTORE PUSH1 0x20 DUP3 ADD SWAP1 POP SWAP3 SWAP2 POP POP JUMP JUMPDEST PUSH1 0x0 JUMPDEST DUP4 DUP2 LT ISZERO PUSH2 0x2A1 JUMPI DUP1 DUP3 ADD MLOAD DUP2 DUP5 ADD MSTORE PUSH1 0x20 DUP2 ADD SWAP1 POP PUSH2 0x286 JUMP JUMPDEST PUSH1 0x0 DUP5 DUP5 ADD MSTORE POP POP POP POP JUMP JUMPDEST PUSH1 0x0 PUSH1 0x1F NOT PUSH1 0x1F DUP4 ADD AND SWAP1 POP SWAP2 SWAP1 POP JUMP JUMPDEST PUSH1 0x0 PUSH2 0x2C9 DUP3 PUSH2 0x267 JUMP JUMPDEST PUSH2 0x2D3 DUP2 DUP6 PUSH2 0x272 JUMP JUMPDEST SWAP4 POP PUSH2 0x2E3 DUP2 DUP6 PUSH1 0x20 DUP7 ADD PUSH2 0x283 JUMP JUMPDEST PUSH2 0x2EC DUP2 PUSH2 0x2AD JUMP JUMPDEST DUP5 ADD SWAP2 POP POP SWAP3 SWAP2 POP POP JUMP JUMPDEST PUSH1 0x0 PUSH1 0x20 DUP3 ADD SWAP1 POP DUP2 DUP2 SUB PUSH1 0x0 DUP4 ADD MSTORE PUSH2 0x311 DUP2 DUP5 PUSH2 0x2BE JUMP JUMPDEST SWAP1 POP SWAP3 SWAP2 POP POP JUMP INVALID LOG2 PUSH5 0x6970667358 0x22 SLT KECCAK256 GAS 0xFB CHAINID DUP7 0xA8 NOT JUMPI BLOCKHASH 0xC6 0xCA 0xD7 MULMOD PUSH21 0x61E9A093E34BD0F2BB10ADA689EAAF744EC9126473 PUSH16 0x6C634300081200330000000000000000 "
		},
		"gasEstimates": {
			"creation": {
				"codeDepositCost": "169400",
				"executionCost": "214",
				"totalCost": "169614"
			},
			"external": {
				"conditionalsAndPrintInConsole(uint256)": "infinite"
			}
		},
		"methodIdentifiers": {
			"conditionalsAndPrintInConsole(uint256)": "8b6c263e"
		}
	},
	"abi": [
		{
			"inputs": [
				{
					"internalType": "uint256",
					"name": "num",
					"type": "uint256"
				}
			],
			"name": "conditionalsAndPrintInConsole",
			"outputs": [],
			"stateMutability": "view",
			"type": "function"
		}
	]
}