{
	"data": {
		"bytecode": {
			"linkReferences": {},
			"object": "608060405234801561001057600080fd5b506109a8806100206000396000f3fe608060405234801561001057600080fd5b50600436106100935760003560e01c806346c2b7bb1161006657806346c2b7bb1461010e5780639698086b1461012c578063c71bf6f014610148578063d705a4b514610166578063f8462a0f1461018457610093565b80631aadff81146100985780632d1be94d146100b65780633e955225146100d45780633f7a0270146100f2575b600080fd5b6100a06101a0565b6040516100ad919061034d565b60405180910390f35b6100be6101a6565b6040516100cb9190610383565b60405180910390f35b6100dc6101bd565b6040516100e9919061034d565b60405180910390f35b61010c600480360381019061010791906103de565b6101c7565b005b6101166101d1565b6040516101239190610383565b60405180910390f35b61014660048036038101906101419190610551565b6101e4565b005b6101506101f7565b60405161015d9190610619565b60405180910390f35b61016e610285565b60405161017b9190610619565b60405180910390f35b61019e60048036038101906101999190610667565b610317565b005b60015481565b6000600260009054906101000a900460ff16905090565b6000600154905090565b8060018190555050565b600260009054906101000a900460ff1681565b80600090816101f391906108a0565b5050565b60008054610204906106c3565b80601f0160208091040260200160405190810160405280929190818152602001828054610230906106c3565b801561027d5780601f106102525761010080835404028352916020019161027d565b820191906000526020600020905b81548152906001019060200180831161026057829003601f168201915b505050505081565b606060008054610294906106c3565b80601f01602080910402602001604051908101604052809291908181526020018280546102c0906106c3565b801561030d5780601f106102e25761010080835404028352916020019161030d565b820191906000526020600020905b8154815290600101906020018083116102f057829003601f168201915b5050505050905090565b80600260006101000a81548160ff02191690831515021790555050565b6000819050919050565b61034781610334565b82525050565b6000602082019050610362600083018461033e565b92915050565b60008115159050919050565b61037d81610368565b82525050565b60006020820190506103986000830184610374565b92915050565b6000604051905090565b600080fd5b600080fd5b6103bb81610334565b81146103c657600080fd5b50565b6000813590506103d8816103b2565b92915050565b6000602082840312156103f4576103f36103a8565b5b6000610402848285016103c9565b91505092915050565b600080fd5b600080fd5b6000601f19601f8301169050919050565b7f4e487b7100000000000000000000000000000000000000000000000000000000600052604160045260246000fd5b61045e82610415565b810181811067ffffffffffffffff8211171561047d5761047c610426565b5b80604052505050565b600061049061039e565b905061049c8282610455565b919050565b600067ffffffffffffffff8211156104bc576104bb610426565b5b6104c582610415565b9050602081019050919050565b82818337600083830152505050565b60006104f46104ef846104a1565b610486565b9050828152602081018484840111156105105761050f610410565b5b61051b8482856104d2565b509392505050565b600082601f8301126105385761053761040b565b5b81356105488482602086016104e1565b91505092915050565b600060208284031215610567576105666103a8565b5b600082013567ffffffffffffffff811115610585576105846103ad565b5b61059184828501610523565b91505092915050565b600081519050919050565b600082825260208201905092915050565b60005b838110156105d45780820151818401526020810190506105b9565b60008484015250505050565b60006105eb8261059a565b6105f581856105a5565b93506106058185602086016105b6565b61060e81610415565b840191505092915050565b6000602082019050818103600083015261063381846105e0565b905092915050565b61064481610368565b811461064f57600080fd5b50565b6000813590506106618161063b565b92915050565b60006020828403121561067d5761067c6103a8565b5b600061068b84828501610652565b91505092915050565b7f4e487b7100000000000000000000000000000000000000000000000000000000600052602260045260246000fd5b600060028204905060018216806106db57607f821691505b6020821081036106ee576106ed610694565b5b50919050565b60008190508160005260206000209050919050565b60006020601f8301049050919050565b600082821b905092915050565b6000600883026107567fffffffffffffffffffffffffffffffffffffffffffffffffffffffffffffffff82610719565b6107608683610719565b95508019841693508086168417925050509392505050565b6000819050919050565b600061079d61079861079384610334565b610778565b610334565b9050919050565b6000819050919050565b6107b783610782565b6107cb6107c3826107a4565b848454610726565b825550505050565b600090565b6107e06107d3565b6107eb8184846107ae565b505050565b5b8181101561080f576108046000826107d8565b6001810190506107f1565b5050565b601f82111561085457610825816106f4565b61082e84610709565b8101602085101561083d578190505b61085161084985610709565b8301826107f0565b50505b505050565b600082821c905092915050565b600061087760001984600802610859565b1980831691505092915050565b60006108908383610866565b9150826002028217905092915050565b6108a98261059a565b67ffffffffffffffff8111156108c2576108c1610426565b5b6108cc82546106c3565b6108d7828285610813565b600060209050601f83116001811461090a57600084156108f8578287015190505b6109028582610884565b86555061096a565b601f198416610918866106f4565b60005b828110156109405784890151825560018201915060208501945060208101905061091b565b8683101561095d5784890151610959601f891682610866565b8355505b6001600288020188555050505b50505050505056fea2646970667358221220efd896016431e22b5d1c6efb4d9d697a5d4f3ade1946dafa02471bb68a70a4ae64736f6c63430008120033",
			"opcodes": "PUSH1 0x80 PUSH1 0x40 MSTORE CALLVALUE DUP1 ISZERO PUSH2 0x10 JUMPI PUSH1 0x0 DUP1 REVERT JUMPDEST POP PUSH2 0x9A8 DUP1 PUSH2 0x20 PUSH1 0x0 CODECOPY PUSH1 0x0 RETURN INVALID PUSH1 0x80 PUSH1 0x40 MSTORE CALLVALUE DUP1 ISZERO PUSH2 0x10 JUMPI PUSH1 0x0 DUP1 REVERT JUMPDEST POP PUSH1 0x4 CALLDATASIZE LT PUSH2 0x93 JUMPI PUSH1 0x0 CALLDATALOAD PUSH1 0xE0 SHR DUP1 PUSH4 0x46C2B7BB GT PUSH2 0x66 JUMPI DUP1 PUSH4 0x46C2B7BB EQ PUSH2 0x10E JUMPI DUP1 PUSH4 0x9698086B EQ PUSH2 0x12C JUMPI DUP1 PUSH4 0xC71BF6F0 EQ PUSH2 0x148 JUMPI DUP1 PUSH4 0xD705A4B5 EQ PUSH2 0x166 JUMPI DUP1 PUSH4 0xF8462A0F EQ PUSH2 0x184 JUMPI PUSH2 0x93 JUMP JUMPDEST DUP1 PUSH4 0x1AADFF81 EQ PUSH2 0x98 JUMPI DUP1 PUSH4 0x2D1BE94D EQ PUSH2 0xB6 JUMPI DUP1 PUSH4 0x3E955225 EQ PUSH2 0xD4 JUMPI DUP1 PUSH4 0x3F7A0270 EQ PUSH2 0xF2 JUMPI JUMPDEST PUSH1 0x0 DUP1 REVERT JUMPDEST PUSH2 0xA0 PUSH2 0x1A0 JUMP JUMPDEST PUSH1 0x40 MLOAD PUSH2 0xAD SWAP2 SWAP1 PUSH2 0x34D JUMP JUMPDEST PUSH1 0x40 MLOAD DUP1 SWAP2 SUB SWAP1 RETURN JUMPDEST PUSH2 0xBE PUSH2 0x1A6 JUMP JUMPDEST PUSH1 0x40 MLOAD PUSH2 0xCB SWAP2 SWAP1 PUSH2 0x383 JUMP JUMPDEST PUSH1 0x40 MLOAD DUP1 SWAP2 SUB SWAP1 RETURN JUMPDEST PUSH2 0xDC PUSH2 0x1BD JUMP JUMPDEST PUSH1 0x40 MLOAD PUSH2 0xE9 SWAP2 SWAP1 PUSH2 0x34D JUMP JUMPDEST PUSH1 0x40 MLOAD DUP1 SWAP2 SUB SWAP1 RETURN JUMPDEST PUSH2 0x10C PUSH1 0x4 DUP1 CALLDATASIZE SUB DUP2 ADD SWAP1 PUSH2 0x107 SWAP2 SWAP1 PUSH2 0x3DE JUMP JUMPDEST PUSH2 0x1C7 JUMP JUMPDEST STOP JUMPDEST PUSH2 0x116 PUSH2 0x1D1 JUMP JUMPDEST PUSH1 0x40 MLOAD PUSH2 0x123 SWAP2 SWAP1 PUSH2 0x383 JUMP JUMPDEST PUSH1 0x40 MLOAD DUP1 SWAP2 SUB SWAP1 RETURN JUMPDEST PUSH2 0x146 PUSH1 0x4 DUP1 CALLDATASIZE SUB DUP2 ADD SWAP1 PUSH2 0x141 SWAP2 SWAP1 PUSH2 0x551 JUMP JUMPDEST PUSH2 0x1E4 JUMP JUMPDEST STOP JUMPDEST PUSH2 0x150 PUSH2 0x1F7 JUMP JUMPDEST PUSH1 0x40 MLOAD PUSH2 0x15D SWAP2 SWAP1 PUSH2 0x619 JUMP JUMPDEST PUSH1 0x40 MLOAD DUP1 SWAP2 SUB SWAP1 RETURN JUMPDEST PUSH2 0x16E PUSH2 0x285 JUMP JUMPDEST PUSH1 0x40 MLOAD PUSH2 0x17B SWAP2 SWAP1 PUSH2 0x619 JUMP JUMPDEST PUSH1 0x40 MLOAD DUP1 SWAP2 SUB SWAP1 RETURN JUMPDEST PUSH2 0x19E PUSH1 0x4 DUP1 CALLDATASIZE SUB DUP2 ADD SWAP1 PUSH2 0x199 SWAP2 SWAP1 PUSH2 0x667 JUMP JUMPDEST PUSH2 0x317 JUMP JUMPDEST STOP JUMPDEST PUSH1 0x1 SLOAD DUP2 JUMP JUMPDEST PUSH1 0x0 PUSH1 0x2 PUSH1 0x0 SWAP1 SLOAD SWAP1 PUSH2 0x100 EXP SWAP1 DIV PUSH1 0xFF AND SWAP1 POP SWAP1 JUMP JUMPDEST PUSH1 0x0 PUSH1 0x1 SLOAD SWAP1 POP SWAP1 JUMP JUMPDEST DUP1 PUSH1 0x1 DUP2 SWAP1 SSTORE POP POP JUMP JUMPDEST PUSH1 0x2 PUSH1 0x0 SWAP1 SLOAD SWAP1 PUSH2 0x100 EXP SWAP1 DIV PUSH1 0xFF AND DUP2 JUMP JUMPDEST DUP1 PUSH1 0x0 SWAP1 DUP2 PUSH2 0x1F3 SWAP2 SWAP1 PUSH2 0x8A0 JUMP JUMPDEST POP POP JUMP JUMPDEST PUSH1 0x0 DUP1 SLOAD PUSH2 0x204 SWAP1 PUSH2 0x6C3 JUMP JUMPDEST DUP1 PUSH1 0x1F ADD PUSH1 0x20 DUP1 SWAP2 DIV MUL PUSH1 0x20 ADD PUSH1 0x40 MLOAD SWAP1 DUP2 ADD PUSH1 0x40 MSTORE DUP1 SWAP3 SWAP2 SWAP1 DUP2 DUP2 MSTORE PUSH1 0x20 ADD DUP3 DUP1 SLOAD PUSH2 0x230 SWAP1 PUSH2 0x6C3 JUMP JUMPDEST DUP1 ISZERO PUSH2 0x27D JUMPI DUP1 PUSH1 0x1F LT PUSH2 0x252 JUMPI PUSH2 0x100 DUP1 DUP4 SLOAD DIV MUL DUP4 MSTORE SWAP2 PUSH1 0x20 ADD SWAP2 PUSH2 0x27D JUMP JUMPDEST DUP3 ADD SWAP2 SWAP1 PUSH1 0x0 MSTORE PUSH1 0x20 PUSH1 0x0 KECCAK256 SWAP1 JUMPDEST DUP2 SLOAD DUP2 MSTORE SWAP1 PUSH1 0x1 ADD SWAP1 PUSH1 0x20 ADD DUP1 DUP4 GT PUSH2 0x260 JUMPI DUP3 SWAP1 SUB PUSH1 0x1F AND DUP3 ADD SWAP2 JUMPDEST POP POP POP POP POP DUP2 JUMP JUMPDEST PUSH1 0x60 PUSH1 0x0 DUP1 SLOAD PUSH2 0x294 SWAP1 PUSH2 0x6C3 JUMP JUMPDEST DUP1 PUSH1 0x1F ADD PUSH1 0x20 DUP1 SWAP2 DIV MUL PUSH1 0x20 ADD PUSH1 0x40 MLOAD SWAP1 DUP2 ADD PUSH1 0x40 MSTORE DUP1 SWAP3 SWAP2 SWAP1 DUP2 DUP2 MSTORE PUSH1 0x20 ADD DUP3 DUP1 SLOAD PUSH2 0x2C0 SWAP1 PUSH2 0x6C3 JUMP JUMPDEST DUP1 ISZERO PUSH2 0x30D JUMPI DUP1 PUSH1 0x1F LT PUSH2 0x2E2 JUMPI PUSH2 0x100 DUP1 DUP4 SLOAD DIV MUL DUP4 MSTORE SWAP2 PUSH1 0x20 ADD SWAP2 PUSH2 0x30D JUMP JUMPDEST DUP3 ADD SWAP2 SWAP1 PUSH1 0x0 MSTORE PUSH1 0x20 PUSH1 0x0 KECCAK256 SWAP1 JUMPDEST DUP2 SLOAD DUP2 MSTORE SWAP1 PUSH1 0x1 ADD SWAP1 PUSH1 0x20 ADD DUP1 DUP4 GT PUSH2 0x2F0 JUMPI DUP3 SWAP1 SUB PUSH1 0x1F AND DUP3 ADD SWAP2 JUMPDEST POP POP POP POP POP SWAP1 POP SWAP1 JUMP JUMPDEST DUP1 PUSH1 0x2 PUSH1 0x0 PUSH2 0x100 EXP DUP2 SLOAD DUP2 PUSH1 0xFF MUL NOT AND SWAP1 DUP4 ISZERO ISZERO MUL OR SWAP1 SSTORE POP POP JUMP JUMPDEST PUSH1 0x0 DUP2 SWAP1 POP SWAP2 SWAP1 POP JUMP JUMPDEST PUSH2 0x347 DUP2 PUSH2 0x334 JUMP JUMPDEST DUP3 MSTORE POP POP JUMP JUMPDEST PUSH1 0x0 PUSH1 0x20 DUP3 ADD SWAP1 POP PUSH2 0x362 PUSH1 0x0 DUP4 ADD DUP5 PUSH2 0x33E JUMP JUMPDEST SWAP3 SWAP2 POP POP JUMP JUMPDEST PUSH1 0x0 DUP2 ISZERO ISZERO SWAP1 POP SWAP2 SWAP1 POP JUMP JUMPDEST PUSH2 0x37D DUP2 PUSH2 0x368 JUMP JUMPDEST DUP3 MSTORE POP POP JUMP JUMPDEST PUSH1 0x0 PUSH1 0x20 DUP3 ADD SWAP1 POP PUSH2 0x398 PUSH1 0x0 DUP4 ADD DUP5 PUSH2 0x374 JUMP JUMPDEST SWAP3 SWAP2 POP POP JUMP JUMPDEST PUSH1 0x0 PUSH1 0x40 MLOAD SWAP1 POP SWAP1 JUMP JUMPDEST PUSH1 0x0 DUP1 REVERT JUMPDEST PUSH1 0x0 DUP1 REVERT JUMPDEST PUSH2 0x3BB DUP2 PUSH2 0x334 JUMP JUMPDEST DUP2 EQ PUSH2 0x3C6 JUMPI PUSH1 0x0 DUP1 REVERT JUMPDEST POP JUMP JUMPDEST PUSH1 0x0 DUP2 CALLDATALOAD SWAP1 POP PUSH2 0x3D8 DUP2 PUSH2 0x3B2 JUMP JUMPDEST SWAP3 SWAP2 POP POP JUMP JUMPDEST PUSH1 0x0 PUSH1 0x20 DUP3 DUP5 SUB SLT ISZERO PUSH2 0x3F4 JUMPI PUSH2 0x3F3 PUSH2 0x3A8 JUMP JUMPDEST JUMPDEST PUSH1 0x0 PUSH2 0x402 DUP5 DUP3 DUP6 ADD PUSH2 0x3C9 JUMP JUMPDEST SWAP2 POP POP SWAP3 SWAP2 POP POP JUMP JUMPDEST PUSH1 0x0 DUP1 REVERT JUMPDEST PUSH1 0x0 DUP1 REVERT JUMPDEST PUSH1 0x0 PUSH1 0x1F NOT PUSH1 0x1F DUP4 ADD AND SWAP1 POP SWAP2 SWAP1 POP JUMP JUMPDEST PUSH32 0x4E487B7100000000000000000000000000000000000000000000000000000000 PUSH1 0x0 MSTORE PUSH1 0x41 PUSH1 0x4 MSTORE PUSH1 0x24 PUSH1 0x0 REVERT JUMPDEST PUSH2 0x45E DUP3 PUSH2 0x415 JUMP JUMPDEST DUP2 ADD DUP2 DUP2 LT PUSH8 0xFFFFFFFFFFFFFFFF DUP3 GT OR ISZERO PUSH2 0x47D JUMPI PUSH2 0x47C PUSH2 0x426 JUMP JUMPDEST JUMPDEST DUP1 PUSH1 0x40 MSTORE POP POP POP JUMP JUMPDEST PUSH1 0x0 PUSH2 0x490 PUSH2 0x39E JUMP JUMPDEST SWAP1 POP PUSH2 0x49C DUP3 DUP3 PUSH2 0x455 JUMP JUMPDEST SWAP2 SWAP1 POP JUMP JUMPDEST PUSH1 0x0 PUSH8 0xFFFFFFFFFFFFFFFF DUP3 GT ISZERO PUSH2 0x4BC JUMPI PUSH2 0x4BB PUSH2 0x426 JUMP JUMPDEST JUMPDEST PUSH2 0x4C5 DUP3 PUSH2 0x415 JUMP JUMPDEST SWAP1 POP PUSH1 0x20 DUP2 ADD SWAP1 POP SWAP2 SWAP1 POP JUMP JUMPDEST DUP3 DUP2 DUP4 CALLDATACOPY PUSH1 0x0 DUP4 DUP4 ADD MSTORE POP POP POP JUMP JUMPDEST PUSH1 0x0 PUSH2 0x4F4 PUSH2 0x4EF DUP5 PUSH2 0x4A1 JUMP JUMPDEST PUSH2 0x486 JUMP JUMPDEST SWAP1 POP DUP3 DUP2 MSTORE PUSH1 0x20 DUP2 ADD DUP5 DUP5 DUP5 ADD GT ISZERO PUSH2 0x510 JUMPI PUSH2 0x50F PUSH2 0x410 JUMP JUMPDEST JUMPDEST PUSH2 0x51B DUP5 DUP3 DUP6 PUSH2 0x4D2 JUMP JUMPDEST POP SWAP4 SWAP3 POP POP POP JUMP JUMPDEST PUSH1 0x0 DUP3 PUSH1 0x1F DUP4 ADD SLT PUSH2 0x538 JUMPI PUSH2 0x537 PUSH2 0x40B JUMP JUMPDEST JUMPDEST DUP2 CALLDATALOAD PUSH2 0x548 DUP5 DUP3 PUSH1 0x20 DUP7 ADD PUSH2 0x4E1 JUMP JUMPDEST SWAP2 POP POP SWAP3 SWAP2 POP POP JUMP JUMPDEST PUSH1 0x0 PUSH1 0x20 DUP3 DUP5 SUB SLT ISZERO PUSH2 0x567 JUMPI PUSH2 0x566 PUSH2 0x3A8 JUMP JUMPDEST JUMPDEST PUSH1 0x0 DUP3 ADD CALLDATALOAD PUSH8 0xFFFFFFFFFFFFFFFF DUP2 GT ISZERO PUSH2 0x585 JUMPI PUSH2 0x584 PUSH2 0x3AD JUMP JUMPDEST JUMPDEST PUSH2 0x591 DUP5 DUP3 DUP6 ADD PUSH2 0x523 JUMP JUMPDEST SWAP2 POP POP SWAP3 SWAP2 POP POP JUMP JUMPDEST PUSH1 0x0 DUP2 MLOAD SWAP1 POP SWAP2 SWAP1 POP JUMP JUMPDEST PUSH1 0x0 DUP3 DUP3 MSTORE PUSH1 0x20 DUP3 ADD SWAP1 POP SWAP3 SWAP2 POP POP JUMP JUMPDEST PUSH1 0x0 JUMPDEST DUP4 DUP2 LT ISZERO PUSH2 0x5D4 JUMPI DUP1 DUP3 ADD MLOAD DUP2 DUP5 ADD MSTORE PUSH1 0x20 DUP2 ADD SWAP1 POP PUSH2 0x5B9 JUMP JUMPDEST PUSH1 0x0 DUP5 DUP5 ADD MSTORE POP POP POP POP JUMP JUMPDEST PUSH1 0x0 PUSH2 0x5EB DUP3 PUSH2 0x59A JUMP JUMPDEST PUSH2 0x5F5 DUP2 DUP6 PUSH2 0x5A5 JUMP JUMPDEST SWAP4 POP PUSH2 0x605 DUP2 DUP6 PUSH1 0x20 DUP7 ADD PUSH2 0x5B6 JUMP JUMPDEST PUSH2 0x60E DUP2 PUSH2 0x415 JUMP JUMPDEST DUP5 ADD SWAP2 POP POP SWAP3 SWAP2 POP POP JUMP JUMPDEST PUSH1 0x0 PUSH1 0x20 DUP3 ADD SWAP1 POP DUP2 DUP2 SUB PUSH1 0x0 DUP4 ADD MSTORE PUSH2 0x633 DUP2 DUP5 PUSH2 0x5E0 JUMP JUMPDEST SWAP1 POP SWAP3 SWAP2 POP POP JUMP JUMPDEST PUSH2 0x644 DUP2 PUSH2 0x368 JUMP JUMPDEST DUP2 EQ PUSH2 0x64F JUMPI PUSH1 0x0 DUP1 REVERT JUMPDEST POP JUMP JUMPDEST PUSH1 0x0 DUP2 CALLDATALOAD SWAP1 POP PUSH2 0x661 DUP2 PUSH2 0x63B JUMP JUMPDEST SWAP3 SWAP2 POP POP JUMP JUMPDEST PUSH1 0x0 PUSH1 0x20 DUP3 DUP5 SUB SLT ISZERO PUSH2 0x67D JUMPI PUSH2 0x67C PUSH2 0x3A8 JUMP JUMPDEST JUMPDEST PUSH1 0x0 PUSH2 0x68B DUP5 DUP3 DUP6 ADD PUSH2 0x652 JUMP JUMPDEST SWAP2 POP POP SWAP3 SWAP2 POP POP JUMP JUMPDEST PUSH32 0x4E487B7100000000000000000000000000000000000000000000000000000000 PUSH1 0x0 MSTORE PUSH1 0x22 PUSH1 0x4 MSTORE PUSH1 0x24 PUSH1 0x0 REVERT JUMPDEST PUSH1 0x0 PUSH1 0x2 DUP3 DIV SWAP1 POP PUSH1 0x1 DUP3 AND DUP1 PUSH2 0x6DB JUMPI PUSH1 0x7F DUP3 AND SWAP2 POP JUMPDEST PUSH1 0x20 DUP3 LT DUP2 SUB PUSH2 0x6EE JUMPI PUSH2 0x6ED PUSH2 0x694 JUMP JUMPDEST JUMPDEST POP SWAP2 SWAP1 POP JUMP JUMPDEST PUSH1 0x0 DUP2 SWAP1 POP DUP2 PUSH1 0x0 MSTORE PUSH1 0x20 PUSH1 0x0 KECCAK256 SWAP1 POP SWAP2 SWAP1 POP JUMP JUMPDEST PUSH1 0x0 PUSH1 0x20 PUSH1 0x1F DUP4 ADD DIV SWAP1 POP SWAP2 SWAP1 POP JUMP JUMPDEST PUSH1 0x0 DUP3 DUP3 SHL SWAP1 POP SWAP3 SWAP2 POP POP JUMP JUMPDEST PUSH1 0x0 PUSH1 0x8 DUP4 MUL PUSH2 0x756 PUSH32 0xFFFFFFFFFFFFFFFFFFFFFFFFFFFFFFFFFFFFFFFFFFFFFFFFFFFFFFFFFFFFFFFF DUP3 PUSH2 0x719 JUMP JUMPDEST PUSH2 0x760 DUP7 DUP4 PUSH2 0x719 JUMP JUMPDEST SWAP6 POP DUP1 NOT DUP5 AND SWAP4 POP DUP1 DUP7 AND DUP5 OR SWAP3 POP POP POP SWAP4 SWAP3 POP POP POP JUMP JUMPDEST PUSH1 0x0 DUP2 SWAP1 POP SWAP2 SWAP1 POP JUMP JUMPDEST PUSH1 0x0 PUSH2 0x79D PUSH2 0x798 PUSH2 0x793 DUP5 PUSH2 0x334 JUMP JUMPDEST PUSH2 0x778 JUMP JUMPDEST PUSH2 0x334 JUMP JUMPDEST SWAP1 POP SWAP2 SWAP1 POP JUMP JUMPDEST PUSH1 0x0 DUP2 SWAP1 POP SWAP2 SWAP1 POP JUMP JUMPDEST PUSH2 0x7B7 DUP4 PUSH2 0x782 JUMP JUMPDEST PUSH2 0x7CB PUSH2 0x7C3 DUP3 PUSH2 0x7A4 JUMP JUMPDEST DUP5 DUP5 SLOAD PUSH2 0x726 JUMP JUMPDEST DUP3 SSTORE POP POP POP POP JUMP JUMPDEST PUSH1 0x0 SWAP1 JUMP JUMPDEST PUSH2 0x7E0 PUSH2 0x7D3 JUMP JUMPDEST PUSH2 0x7EB DUP2 DUP5 DUP5 PUSH2 0x7AE JUMP JUMPDEST POP POP POP JUMP JUMPDEST JUMPDEST DUP2 DUP2 LT ISZERO PUSH2 0x80F JUMPI PUSH2 0x804 PUSH1 0x0 DUP3 PUSH2 0x7D8 JUMP JUMPDEST PUSH1 0x1 DUP2 ADD SWAP1 POP PUSH2 0x7F1 JUMP JUMPDEST POP POP JUMP JUMPDEST PUSH1 0x1F DUP3 GT ISZERO PUSH2 0x854 JUMPI PUSH2 0x825 DUP2 PUSH2 0x6F4 JUMP JUMPDEST PUSH2 0x82E DUP5 PUSH2 0x709 JUMP JUMPDEST DUP2 ADD PUSH1 0x20 DUP6 LT ISZERO PUSH2 0x83D JUMPI DUP2 SWAP1 POP JUMPDEST PUSH2 0x851 PUSH2 0x849 DUP6 PUSH2 0x709 JUMP JUMPDEST DUP4 ADD DUP3 PUSH2 0x7F0 JUMP JUMPDEST POP POP JUMPDEST POP POP POP JUMP JUMPDEST PUSH1 0x0 DUP3 DUP3 SHR SWAP1 POP SWAP3 SWAP2 POP POP JUMP JUMPDEST PUSH1 0x0 PUSH2 0x877 PUSH1 0x0 NOT DUP5 PUSH1 0x8 MUL PUSH2 0x859 JUMP JUMPDEST NOT DUP1 DUP4 AND SWAP2 POP POP SWAP3 SWAP2 POP POP JUMP JUMPDEST PUSH1 0x0 PUSH2 0x890 DUP4 DUP4 PUSH2 0x866 JUMP JUMPDEST SWAP2 POP DUP3 PUSH1 0x2 MUL DUP3 OR SWAP1 POP SWAP3 SWAP2 POP POP JUMP JUMPDEST PUSH2 0x8A9 DUP3 PUSH2 0x59A JUMP JUMPDEST PUSH8 0xFFFFFFFFFFFFFFFF DUP2 GT ISZERO PUSH2 0x8C2 JUMPI PUSH2 0x8C1 PUSH2 0x426 JUMP JUMPDEST JUMPDEST PUSH2 0x8CC DUP3 SLOAD PUSH2 0x6C3 JUMP JUMPDEST PUSH2 0x8D7 DUP3 DUP3 DUP6 PUSH2 0x813 JUMP JUMPDEST PUSH1 0x0 PUSH1 0x20 SWAP1 POP PUSH1 0x1F DUP4 GT PUSH1 0x1 DUP2 EQ PUSH2 0x90A JUMPI PUSH1 0x0 DUP5 ISZERO PUSH2 0x8F8 JUMPI DUP3 DUP8 ADD MLOAD SWAP1 POP JUMPDEST PUSH2 0x902 DUP6 DUP3 PUSH2 0x884 JUMP JUMPDEST DUP7 SSTORE POP PUSH2 0x96A JUMP JUMPDEST PUSH1 0x1F NOT DUP5 AND PUSH2 0x918 DUP7 PUSH2 0x6F4 JUMP JUMPDEST PUSH1 0x0 JUMPDEST DUP3 DUP2 LT ISZERO PUSH2 0x940 JUMPI DUP5 DUP10 ADD MLOAD DUP3 SSTORE PUSH1 0x1 DUP3 ADD SWAP2 POP PUSH1 0x20 DUP6 ADD SWAP5 POP PUSH1 0x20 DUP2 ADD SWAP1 POP PUSH2 0x91B JUMP JUMPDEST DUP7 DUP4 LT ISZERO PUSH2 0x95D JUMPI DUP5 DUP10 ADD MLOAD PUSH2 0x959 PUSH1 0x1F DUP10 AND DUP3 PUSH2 0x866 JUMP JUMPDEST DUP4 SSTORE POP JUMPDEST PUSH1 0x1 PUSH1 0x2 DUP9 MUL ADD DUP9 SSTORE POP POP POP JUMPDEST POP POP POP POP POP POP JUMP INVALID LOG2 PUSH5 0x6970667358 0x22 SLT KECCAK256 0xEF 0xD8 SWAP7 ADD PUSH5 0x31E22B5D1C PUSH15 0xFB4D9D697A5D4F3ADE1946DAFA0247 SHL 0xB6 DUP11 PUSH17 0xA4AE64736F6C6343000812003300000000 "
		},
		"gasEstimates": {
			"creation": {
				"codeDepositCost": "494400",
				"executionCost": "530",
				"totalCost": "494930"
			},
			"external": {
				"_greet()": "infinite",
				"_isTrue()": "2471",
				"_n()": "2430",
				"getBoolean()": "2502",
				"getGreet()": "infinite",
				"getN()": "2482",
				"setBoolean(bool)": "24767",
				"setGreet(string)": "infinite",
				"setN(uint256)": "22587"
			}
		},
		"methodIdentifiers": {
			"_greet()": "c71bf6f0",
			"_isTrue()": "46c2b7bb",
			"_n()": "1aadff81",
			"getBoolean()": "2d1be94d",
			"getGreet()": "d705a4b5",
			"getN()": "3e955225",
			"setBoolean(bool)": "f8462a0f",
			"setGreet(string)": "9698086b",
			"setN(uint256)": "3f7a0270"
		}
	},
	"abi": [
		{
			"inputs": [],
			"name": "_greet",
			"outputs": [
				{
					"internalType": "string",
					"name": "",
					"type": "string"
				}
			],
			"stateMutability": "view",
			"type": "function"
		},
		{
			"inputs": [],
			"name": "_isTrue",
			"outputs": [
				{
					"internalType": "bool",
					"name": "",
					"type": "bool"
				}
			],
			"stateMutability": "view",
			"type": "function"
		},
		{
			"inputs": [],
			"name": "_n",
			"outputs": [
				{
					"internalType": "uint256",
					"name": "",
					"type": "uint256"
				}
			],
			"stateMutability": "view",
			"type": "function"
		},
		{
			"inputs": [],
			"name": "getBoolean",
			"outputs": [
				{
					"internalType": "bool",
					"name": "",
					"type": "bool"
				}
			],
			"stateMutability": "view",
			"type": "function"
		},
		{
			"inputs": [],
			"name": "getGreet",
			"outputs": [
				{
					"internalType": "string",
					"name": "",
					"type": "string"
				}
			],
			"stateMutability": "view",
			"type": "function"
		},
		{
			"inputs": [],
			"name": "getN",
			"outputs": [
				{
					"internalType": "uint256",
					"name": "",
					"type": "uint256"
				}
			],
			"stateMutability": "view",
			"type": "function"
		},
		{
			"inputs": [
				{
					"internalType": "bool",
					"name": "isTrue",
					"type": "bool"
				}
			],
			"name": "setBoolean",
			"outputs": [],
			"stateMutability": "nonpayable",
			"type": "function"
		},
		{
			"inputs": [
				{
					"internalType": "string",
					"name": "hola",
					"type": "string"
				}
			],
			"name": "setGreet",
			"outputs": [],
			"stateMutability": "nonpayable",
			"type": "function"
		},
		{
			"inputs": [
				{
					"internalType": "uint256",
					"name": "n",
					"type": "uint256"
				}
			],
			"name": "setN",
			"outputs": [],
			"stateMutability": "nonpayable",
			"type": "function"
		}
	]
}